:100000004FC000006AC0000068C0000066C0000069
:1000100064C0000062C0000060C000005EC000005C
:100020005CC000005AC000001BC5000056C00000A4
:1000300054C0000052C0000050C000004EC000007C
:10004000C3C400004AC0000048C0000046C0000011
:1000500044C0000042C0000040C000003EC000009C
:100060003CC000003AC0000038C0000036C00000AC
:1000700034C0000032C0000030C000002EC00000BC
:100080002CC000002AC0000028C000002E0333034B
:100090003A03410348034F0356035D0364036B03B4
:1000A00011241FBECFEFD0E1DEBFCDBF11E0A0E035
:1000B000B1E0E0E4FBE000E00BBF02C007900D926E
:1000C000A634B107D9F721E0A6E4B1E001C01D9242
:1000D000AE35B207E1F7A9D331C592CFE2E6F0E041
:1000E0009081917F908393B19F7093B993B1892B45
:1000F00083B980818860808387EC90E00197F1F775
:1001000000C000008081817F80838FE19EE40197A1
:10011000F1F700C000000895E2E6F0E09081917FE1
:10012000908393B19F7093B993B1282F207F922B26
:1001300093B9908198609083A7ECB0E01197F1F7A4
:1001400000C000009081917F9083AFEBB7E11197E1
:10015000F1F700C0000093B19F7093B923B1B0E1F3
:100160008B9FC0011124822B83B98081886080839A
:1001700087EC90E00197F1F700C000008081817F5B
:100180008083AFEBB7E11197F1F700C0000008954D
:100190002FEF80E792E0215080409040E1F700C0CF
:1001A000000080E39BDF8FE19EE40197F1F700C040
:1001B000000080E393DF8FE19EE40197F1F700C038
:1001C000000080E38BDF8FE19EE40197F1F700C030
:1001D000000080E283DF8FE19EE40197F1F700C029
:1001E000000088E299DF8FE19EE40197F1F700C0FB
:1001F000000086E091DF8FE19EE40197F1F700C0F7
:1002000000008FE089DF8FE19EE40197F1F700C0E5
:10021000000081E081DF8FE19EE40197F1F700C0EB
:1002200000000895E2E6F0E09081937F908393B11F
:100230009F7093B993B1282F207F922B93B990810F
:100240009A609083A7ECB0E01197F1F700C000002E
:100250009081937F9083AFEBB7E11197F1F700C0E6
:10026000000093B19F7093B923B1B0E18B9FC0019F
:100270001124822B83B980818A60808387EC90E08F
:100280000197F1F700C000008081837F8083AFEB8E
:10029000B7E11197F1F700C000000895CF93DF9305
:1002A000EC018881882329F02196BCDF8991811196
:1002B000FCCFDF91CF9108958230A1F018F4813006
:1002C00031F031C08330C9F0843011F12CC098E096
:1002D00095BBEFE9FFE03197F1F700C00000989B74
:1002E00063C06CC090E195BBEFE9FFE03197F1F797
:1002F00000C00000989B2AC067C090E295BBEFE960
:10030000FFE03197F1F700C00000989B21C059C071
:1003100090E495BBEFE9FFE03197F1F700C00000F2
:10032000989B18C054C0EFE9FFE03197F1F700C087
:100330000000989911C0823049F018F48130B1F171
:1003400031C0833029F0843029F02CC084E3089533
:1003500087E308958AE20895999911C0823041F1A6
:1003600018F4813031F01EC0833029F0843029F038
:1003700019C082E3089588E3089580E308959A9967
:1003800011C0823049F018F48130A1F00BC08330E5
:1003900029F0843029F006C086E3089589E30895A2
:1003A00083E208958EE4089581E3089581E308953A
:1003B00085E3089583E3089585E30895999BD9CF54
:1003C000DECF999BD8CFDBCF999BF6CFD8CF999B27
:1003D000D4CFD5CFF89410926400109265008FEFBF
:1003E0008ABB88EF84BB8EE08093610080EF82B986
:1003F00087E689B910929000E5E9F0E08081866097
:1004000080838AB188698AB980E285BF0895CF93D5
:10041000DF9381E081DE82E07FDE80915A0190915E
:100420005B01CAE0D0E0BE0159D380E3860FFADE5B
:1004300080915A0190915B01BE0150D3805DF2DE44
:100440008AE3F0DE8091580190915901BE0146D3B4
:1004500080E3860FE7DE8091580190915901BE013B
:100460003DD3805DDFDE8AE3DDDE80915601909131
:100470005701BE0133D380E3860FD4DE809156014D
:1004800090915701BE012AD3805DCCDE80ED44DE21
:100490008091500190915101BE0120D380E3860FDD
:1004A000C1DE8091500190915101BE0117D3805D52
:1004B000B9DE8AE3B7DE80914E0190914F01BE0113
:1004C0000DD380E3860FAEDE80914E0190914F01F7
:1004D000BE0104D380E3860FA5DE8AE3A3DE80910C
:1004E0004C0190914D01BE01F9D280E3860F9ADE56
:1004F00080914C0190914D01BE01F0D2805D92DE61
:100500008AE390DE8091540190915501BE01E6D2BC
:1005100080E3860F87DE8091540190915501BE01E2
:10052000DDD2805D7FDEDF91CF910895809156010D
:1005300090915701019690935701809356018091B5
:10054000560190915701CC9769F480915801909190
:1005500059010196909359018093580110925701C7
:10056000109256018091580190915901CC9769F4ED
:1005700080915A0190915B01019690935B01809369
:100580005A01109259011092580180915A0190918C
:100590005B01489721F410925B0110925A0137CF0A
:1005A000089580915401909155010A9690935501B8
:1005B00080935401809154019091550184369105A6
:1005C00069F480914C0190914D01019690934D01F9
:1005D00080934C01109255011092540180914C016E
:1005E00090914D01CC9769F480914E0190914F010B
:1005F000019690934F0180934E0110924D011092FD
:100600004C0180914E0190914F01CC9769F48091FB
:1006100050019091510101969093510180935001A6
:1006200010924F0110924E01809150019091510112
:10063000489721F41092510110925001E8CE08958C
:1006400013BEE09102018E2F90E0FC01F097EA309A
:10065000F10508F046C0EA5BFF4F53C21092530108
:10066000109252013EC081E090E09093530180933C
:10067000520137C082E090E0909353018093520181
:1006800030C083E090E0909353018093520129C0E1
:1006900084E090E0909353018093520122C085E062
:1006A00090E090935301809352011BC086E090E04C
:1006B000909353018093520114C087E090E090938F
:1006C0005301809352010DC088E090E09093530154
:1006D0008093520106C089E090E09093530180938B
:1006E00052018091460181111AC08091520190916E
:1006F00053019C01220F331F880F991F880F991FE8
:10070000880F991F820F931F90935B0180935A016A
:10071000809146018F5F8093460179DE84C080918D
:100720004601813079F520915A0130915B01809129
:10073000520190915301820F931F90935B0180931C
:100740005A01809146018F5F8093460160DE80915F
:100750005A0190915B0148970CF465C010924601D4
:1007600081E0DADC82E0D8DC83E091E097DD2FEFF6
:100770008BE49DE1215080409040E1F700C00000F3
:1007800046DE51C0809146018230D1F48091520101
:10079000909153019C01220F331F880F991F880FDE
:1007A000991F880F991F820F931F9093590180936F
:1007B0005801809146018F5F8093460128DE33C047
:1007C00080914601833079F520915801309159018B
:1007D0008091520190915301820F931F9093590180
:1007E000809358018091580190915901CC97ACF0B9
:1007F00082E08093460181E08FDC82E08DDC83E043
:1008000091E04CDD2FEF8BE49DE121508040904042
:10081000E1F700C00000FBDD06C010924601109217
:10082000470187E083BFF3CD0895D4DDB1DC82E0DA
:1008300073DC81E191E032DD80EC6EDC82E291E0FC
:100840002DDD80E969DC84E391E028DD2FEF83ED85
:1008500090E3215080409040E1F700C0000081E02B
:100860005BDC81E487BF7894D2DDEADE03E610E04A
:10087000D3E06894FF24F2F8C2E0EE24EA940F2E4D
:10088000F7E0BF2EF02D0F2EF6E0DF2EF02D0F2E0D
:10089000F5E0CF2EF02DF8019081943039F09830AA
:1008A00041F0923041F4C093470105C0D093470115
:1008B00002C0F0924701909147019330A1F4C5BD69
:1008C000EBBA809154019091550190934901809326
:1008D000480180914C0190914D0190934B01809380
:1008E0004A01C093470190914701943091F415BC9F
:1008F0001BBA109251011092500110924F011092A8
:100900004E0110924D0110924C011092550110921F
:10091000540181E0D1DC80930101909101019E346A
:1009200039F0909101019093020110920001B3CF30
:1009300090910001911104C081E08093000180DE5C
:100940008C2FBADC80930101909101019E3439F023
:100950008091010180930201C09300019CCF80919E
:100960000001823019F4D09300016ADE8D2FA4DCDF
:1009700080930101809101018E3439F08091010151
:1009800080930201F092000186CF809100018430B3
:1009900019F4C092000154DE8F2D8EDC809301018A
:1009A000809101018E3439F0809101018093020120
:1009B000D092000170CF80910001863009F06BCF9A
:1009C000B09200013DDE67CF1F920F920FB60F92DB
:1009D00011240BB60F922F933F934F935F936F9316
:1009E0007F938F939F93AF93BF93EF93FF938091E8
:1009F0005C0190915D01019690935D0180935C0193
:100A000080915C0190915D0166E070E067D0892B78
:100A100049F480914701823021F080914701833071
:100A200009F4BFDD80915C0190915D01CD972CF0C0
:100A300010925D0110925C0179DDFF91EF91BF9101
:100A4000AF919F918F917F916F915F914F913F9166
:100A50002F910F900BBE0F900FBE0F901F90189507
:100A60001F920F920FB60F9211242F933F935F9313
:100A70006F937F938F939F93AF93BF9380914A011E
:100A800090914B012AE030E0B90128D060556BBB52
:100A900080914A0190914B01B90120D080568BBBC7
:100AA0008091480190914901B90118D060576BBB02
:100AB0008091480190914901B90110D080588BBBB9
:100AC000BF91AF919F918F917F916F915F913F9176
:100AD0002F910F900FBE0F901F90189597FB072E28
:100AE00016F4009406D077FD08D014D007FC05D08A
:100AF0003EF4909581959F4F0895709561957F4F35
:100B00000895EE0FFF1F0024001C0BBE0790F69106
:100B1000E02D0994AA1BBB1B51E107C0AA1FBB1FF4
:100B2000A617B70710F0A61BB70B881F991F5A9579
:100B3000A9F780959095BC01CD010895F894FFCF59
:100B4000014E304869626173206265766974656C34
:100B50000073746F7070657220696E6469743A6BAB
:100B6000310073746F70706572206B6F7269646F9F
:100B70003A6B320073746F707065722072657365C2
:060B8000743A6B33000023
:00000001FF
