S014000064696769746F72615F6C63642E737265632B
S11300004FC000006AC0000068C0000066C0000065
S113001064C0000062C0000060C000005EC0000058
S11300205CC000005AC0000058C0000056C0000068
S113003054C0000052C0000050C000004EC0000078
S113004019C400004AC0000048C0000046C00000B7
S113005044C0000042C0000040C000003EC0000098
S11300603CC000003AC0000038C0000036C00000A8
S113007034C0000032C0000030C000002EC00000B8
S11300802CC000002AC0000028C0000088028D0295
S113009094029B02A202A902B002B702BE02C502E8
S11300A011241FBECFEFD0E1DEBFCDBF11E0A0E031
S11300B0B1E0EEE4F9E000E00BBF02C007900D925E
S11300C0AC39B107D9F721E0ACE9B1E001C01D9228
S11300D0AA3AB207E1F71AD338C492CFE2E6F0E0C5
S11300E09081917F908393B19F7093B993B1892B41
S11300F083B980818860808387EC90E00197F1F771
S113010000C000008081817F80838FE19EE401979D
S1130110F1F700C000000895E2E6F0E09081917FDD
S1130120908393B19F7093B993B1282F207F922B22
S113013093B9908198609083A7ECB0E01197F1F7A0
S113014000C000009081917F9083AFEBB7E11197DD
S1130150F1F700C0000093B19F7093B923B1B0E1EF
S11301608B9FC0011124822B83B980818860808396
S113017087EC90E00197F1F700C000008081817F57
S11301808083AFEBB7E11197F1F700C00000089549
S11301902FEF80E792E0215080409040E1F700C0CB
S11301A0000080E39BDF8FE19EE40197F1F700C03C
S11301B0000080E393DF8FE19EE40197F1F700C034
S11301C0000080E38BDF8FE19EE40197F1F700C02C
S11301D0000080E283DF8FE19EE40197F1F700C025
S11301E0000088E299DF8FE19EE40197F1F700C0F7
S11301F0000086E091DF8FE19EE40197F1F700C0F3
S113020000008FE089DF8FE19EE40197F1F700C0E1
S1130210000081E081DF8FE19EE40197F1F700C0E7
S113022000000895E2E6F0E09081937F908393B11B
S11302309F7093B993B1282F207F922B93B990810B
S11302409A609083A7ECB0E01197F1F700C000002A
S11302509081937F9083AFEBB7E11197F1F700C0E2
S1130260000093B19F7093B923B1B0E18B9FC0019B
S11302701124822B83B980818A60808387EC90E08B
S11302800197F1F700C000008081837F8083AFEB8A
S1130290B7E11197F1F700C000000895CF93DF9301
S11302A0EC018881882329F02196BCDF8991811192
S11302B0FCCFDF91CF9108958230A1F018F4813002
S11302C031F031C08330C9F0843011F12CC098E092
S11302D095BBEFE9FFE03197F1F700C00000989B70
S11302E063C06CC090E195BBEFE9FFE03197F1F793
S11302F000C00000989B2AC067C090E295BBEFE95C
S1130300FFE03197F1F700C00000989B21C059C06D
S113031090E495BBEFE9FFE03197F1F700C00000EE
S1130320989B18C054C0EFE9FFE03197F1F700C083
S11303300000989911C0823049F018F48130B1F16D
S113034031C0833029F0843029F02CC084E308952F
S113035087E308958AE20895999911C0823041F1A2
S113036018F4813031F01EC0833029F0843029F034
S113037019C082E3089588E3089580E308959A9963
S113038011C0823049F018F48130A1F00BC08330E1
S113039029F0843029F006C086E3089589E308959E
S11303A083E208958EE4089581E3089581E3089536
S11303B085E3089583E3089585E30895999BD9CF50
S11303C0DECF999BD8CFDBCF999BF6CFD8CF999B23
S11303D0D4CFD5CFF894109264001092650087E6CC
S11303E089B910929000E5E9F0E08081866080830D
S11303F08AB188698AB980E285BF08958091A20193
S11304009091A30101969093A3018093A2018091FE
S1130410A2019091A301CC9769F48091A4019091D9
S1130420A50101969093A5018093A4011092A301C4
S11304301092A2018091A4019091A501CC9769F436
S11304408091A6019091A70101969093A7018093B2
S1130450A6011092A5011092A4018091A601909189
S1130460A701489721F41092A7011092A6010895BC
S1130470CF93DF9381E050DE80EC4EDE8091A601C5
S11304809091A701CAE0D0E0BE012FD280E3860F8D
S1130490C9DE8091A6019091A701BE0126D2805D9C
S11304A0C1DE8AE3BFDE8091A4019091A501BE0163
S11304B01CD280E3860FB6DE8091A4019091A50141
S11304C0BE0113D2805DAEDE8AE3ACDE8091A20170
S11304D09091A301BE0109D280E3860FA3DE80912F
S11304E0A2019091A301BE0100D2805D9BDEDF9149
S11304F0CF91089513BEE09102018E2F90E0FC018C
S1130500F097EA30F10508F046C0EA5BFF4F00C2FD
S113051010929F0110929E013EC081E090E0909362
S11305209F0180939E0137C082E090E090939F01E9
S113053080939E0130C083E090E090939F0180936C
S11305409E0129C084E090E090939F0180939E01D6
S113055022C085E090E090939F0180939E011BC090
S113056086E090E090939F0180939E0114C087E001
S113057090E090939F0180939E010DC088E090E0ED
S113058090939F0180939E0106C089E090E0909330
S11305909F0180939E018091A0019091A101892BDC
S11305A0F1F480919E0190919F019C01220F331FD1
S11305B0880F991F880F991F880F991F820F931F07
S11305C09093A7018093A6018091A0019091A1012D
S11305D001969093A1018093A0014ADF95C0809178
S11305E0A0019091A101019749F52091A6013091B4
S11305F0A70180919E0190919F01820F931F909378
S1130600A7018093A6018091A0019091A101019678
S11306109093A1018093A0012BDF8091A60190917A
S1130620A70148970CF470C01092A1011092A00188
S113063082E072DD83E091E031DE66C08091A0014A
S11306409091A1010297F1F480919E0190919F01F4
S11306509C01220F331F880F991F880F991F880F41
S1130660991F820F931F9093A5018093A4018091F9
S1130670A0019091A10101969093A1018093A00102
S1130680F7DE42C08091A0019091A101039709F087
S11306903BC02091A4013091A50180919E019091CD
S11306A09F01820F931F9093A5018093A4018091D1
S11306B0A4019091A501CC97ACF082E090E09093D6
S11306C0A1018093A00128DD88E291E0E7DD80ECC0
S11306D023DD88E391E0E2DD80E91EDD88E491E03A
S11306E0DDDD12C01092A1011092A00110929D01B3
S11306F010929C0182E010DD8FE491E0CFDD80EC6C
S11307000BDD8FE591E0CADDB3CE089588EF84BB9D
S11307108EE08093610080EF82B95CDE39DD8AE689
S113072091E0BCDD80ECF8DC8BE791E0B7DD80E99B
S1130730F3DC8AE891E0B2DD2FEF83ED90E3215002
S113074080409040E1F700C0000081E0E5DCD2DEAB
S113075081E087BF7894C3E6D0E06894EE24E1F8A2
S1130760F12C04E010E00F2EF7E0DF2EF02D0F2E19
S1130770F6E0CF2EF02D0F2EF5E0BF2EF02D888160
S1130780823019F0843031F009C0F0929D01E0927A
S11307909C0104C010939D0100939C0180919C01D5
S11307A090919D01029709F4D3BE80919C01909190
S11307B09D01049709F413BE81E07EDD809301015D
S11307C0809101018E3439F08091010180930201FE
S11307D010920001D4CF80910001811104C081E006
S11307E08093000187DE82E067DD809301018091C0
S11307F001018E3441F0809101018093020182E075
S113080080930001BCCF80910001823021F483E009
S1130810809300016FDE83E04FDD809301018091BE
S113082001018E3441F0809101018093020184E042
S113083080930001A4CF80910001843019F4B09218
S1130840000158DE84E038DD8093010180910101CC
S11308508E3439F08091010180930201C09200012D
S11308608ECF80910001863009F089CFD0920001AB
S113087041DE85CF1F920F920FB60F9211240BB653
S11308800F922F933F934F935F936F937F938F9325
S11308909F93AF93BF93EF93FF938091A80190919F
S11308A0A90101969093A9018093A8018091A801C0
S11308B09091A901CD9734F01092A9011092A8014A
S11308C09DDDD6DDFF91EF91BF91AF919F918F9107
S11308D07F916F915F914F913F912F910F900BBE3C
S11308E00F900FBE0F901F90189597FB072E16F4CC
S11308F0009406D077FD08D014D007FC05D03EF450
S1130900909581959F4F0895709561957F4F0895B7
S1130910EE0FFF1F0024001C0BBE0790F691E02D84
S11309200994AA1BBB1B51E107C0AA1FBB1FA61732
S1130930B70710F0A61BB70B881F991F5A95A9F784
S111094080959095BC01CD010895F894FFCFE9
S113094E014E304869626173206265766974656C24
S113095E2C20697264206265206120706F6E746F42
S113096E73206F726174210048696261732062653D
S113097E766974656C2C200069726420626520614E
S113098E20706F6E746F7300706572636574004FC0
S113099E7261206265616C6C697476612C200069E9
S11309AE6E6469746173206B31004F7261206265ED
S11309BE616C6C697461733A6B30004F72612069BB
S11309CE6E64697461733A6B31004F7261206C65A9
S10F09DE616C6C697461733A6B32000048
S9030000FC
