:100000004FC000006AC0000068C0000066C0000069
:1000100064C0000062C0000060C000005EC000005C
:100020005CC000005AC0000081C5000056C000003E
:1000300054C0000052C0000050C000004EC000007C
:1000400025C500004AC0000048C0000046C00000AE
:1000500044C0000042C0000040C000003EC000009C
:100060003CC000003AC0000038C0000036C00000AC
:1000700034C0000032C0000097C500002EC0000050
:100080002CC000002AC0000028C0000046034B031B
:1000900052035903600367036E0375037C038303F4
:1000A00011241FBECFEFD0E1DEBFCDBF11E0A0E035
:1000B000B1E0E8E6FCE000E00BBF02C007900D9263
:1000C000A833B107D9F721E0A8E3B1E001C01D9240
:1000D000A135B207E1F7CED3C5C592CFE2E6F0E095
:1000E0009081917F908393B19F7093B993B1892B45
:1000F00083B980818860808387EC90E00197F1F775
:1001000000C000008081817F80838FE19EE40197A1
:10011000F1F700C000000895E2E6F0E09081917FE1
:10012000908393B19F7093B993B1282F207F922B26
:1001300093B9908198609083A7ECB0E01197F1F7A4
:1001400000C000009081917F9083AFEBB7E11197E1
:10015000F1F700C0000093B19F7093B923B1B0E1F3
:100160008B9FC0011124822B83B98081886080839A
:1001700087EC90E00197F1F700C000008081817F5B
:100180008083AFEBB7E11197F1F700C0000008954D
:100190002FEF80E792E0215080409040E1F700C0CF
:1001A000000080E39BDF8FE19EE40197F1F700C040
:1001B000000080E393DF8FE19EE40197F1F700C038
:1001C000000080E38BDF8FE19EE40197F1F700C030
:1001D000000080E283DF8FE19EE40197F1F700C029
:1001E000000088E299DF8FE19EE40197F1F700C0FB
:1001F000000086E091DF8FE19EE40197F1F700C0F7
:1002000000008FE089DF8FE19EE40197F1F700C0E5
:10021000000081E081DF8FE19EE40197F1F700C0EB
:1002200000000895E2E6F0E09081937F908393B11F
:100230009F7093B993B1282F207F922B93B990810F
:100240009A609083A7ECB0E01197F1F700C000002E
:100250009081937F9083AFEBB7E11197F1F700C0E6
:10026000000093B19F7093B923B1B0E18B9FC0019F
:100270001124822B83B980818A60808387EC90E08F
:100280000197F1F700C000008081837F8083AFEB8E
:10029000B7E11197F1F700C000000895CF93DF9305
:1002A000EC018881882329F02196BCDF8991811196
:1002B000FCCFDF91CF9108958230A1F018F4813006
:1002C00031F031C08330C9F0843011F12CC098E096
:1002D00095BBEFE9FFE03197F1F700C00000989B74
:1002E00063C06CC090E195BBEFE9FFE03197F1F797
:1002F00000C00000989B2AC067C090E295BBEFE960
:10030000FFE03197F1F700C00000989B21C059C071
:1003100090E495BBEFE9FFE03197F1F700C00000F2
:10032000989B18C054C0EFE9FFE03197F1F700C087
:100330000000989911C0823049F018F48130B1F171
:1003400031C0833029F0843029F02CC084E3089533
:1003500087E308958AE20895999911C0823041F1A6
:1003600018F4813031F01EC0833029F0843029F038
:1003700019C082E3089588E3089580E308959A9967
:1003800011C0823049F018F48130A1F00BC08330E5
:1003900029F0843029F006C086E3089589E30895A2
:1003A00083E208958EE4089581E3089581E308953A
:1003B00085E3089583E3089585E30895999BD9CF54
:1003C000DECF999BD8CFDBCF999BF6CFD8CF999B27
:1003D000D4CFD5CFF89410926400109265008FEFBF
:1003E0008ABB88EF84BB8EE08093610080EF82B986
:1003F00097E699B910929000E5E9F0E08081866077
:1004000080838AB188698AB9909399001092980084
:10041000EAE9F0E080818869808386E080939D002E
:1004200080E285BF08955D9BFECF8CB90895EBE90E
:10043000F0E0908195FFFDCF80939C000895CF93CD
:10044000DF9381E069DE82E067DE80914D0190916B
:100450004E01CAE0D0E0BE01D5D380E3860FE2DED4
:1004600080914D0190914E01BE01CCD3805DDADECA
:100470008AE3D8DE80914B0190914C01BE01C2D33A
:1004800080E3860FCFDE80914B0190914C01BE013D
:10049000B9D3805DC7DE8AE3C5DE809149019091C2
:1004A0004A01BE01AFD380E3860FBCDE80914901D3
:1004B00090914A01BE01A6D3805DB4DE80ED2CDEB2
:1004C0008091410190914201BE019CD380E3860F4F
:1004D000A9DE8091410190914201BE0193D3805DDC
:1004E000A1DE8AE39FDE80913F0190914001BE0131
:1004F00089D380E3860F96DE80913F019091400181
:10050000BE0180D380E3860F8DDE8AE38BDE80918F
:100510003D0190913E01BE0175D380E3860F82DEDE
:1005200080913D0190913E01BE016CD3805D7ADEE9
:100530008AE378DE8091470190914801BE0162D341
:1005400080E3860F6FDE8091470190914801BE01E4
:1005500059D3805D67DEDF91CF9108958091490185
:1005600090914A01019690934A01809349018091AC
:10057000490190914A01CC9769F480914B01909187
:100580004C01019690934C0180934B0110924A01CB
:100590001092490180914B0190914C01CC9769F4E4
:1005A00080914D0190914E01019690934E01809360
:1005B0004D0110924C0110924B0180914D01909190
:1005C0004E01489721F410924E0110924D0137CF01
:1005D000089580914701909148010A9690934801AF
:1005E000809347018091470190914801843691059D
:1005F00069F480913D0190913E01019690933E01F6
:1006000080933D01109248011092470180913D0175
:1006100090913E01CC9769F480913F019091400107
:1006200001969093400180933F0110923E011092F9
:100630003D0180913F0190914001CC9769F48091F8
:1006400041019091420101969093420180934101B2
:100650001092400110923F0180914101909142011E
:10066000489721F41092420110924101E8CE08957A
:1006700013BEE09102018E2F90E0FC01F097EA306A
:10068000F10508F046C0EA5BFF4FCFC21092460169
:10069000109245013EC081E090E090934601809326
:1006A000450137C082E090E0909346018093450178
:1006B00030C083E090E0909346018093450129C0CB
:1006C00084E090E0909346018093450122C085E04C
:1006D00090E090934601809345011BC086E090E036
:1006E000909346018093450114C087E090E0909379
:1006F0004601809345010DC088E090E0909346014B
:100700008093450106C089E090E090934601809374
:1007100045018091380181111AC080914501909165
:1007200046019C01220F331F880F991F880F991FC4
:10073000880F991F820F931F90934E0180934D0154
:10074000809138018F5F8093380179DE91C080916C
:1007500038018130A9F420914D0130914E018091F2
:10076000450190914601820F931F90934E01809313
:100770004D01809138018F5F8093380160DE78C031
:10078000809138018230D1F48091450190914601E9
:100790009C01220F331F880F991F880F991F880F04
:1007A000991F820F931F90934C0180934B0180916E
:1007B00038018F5F8093380142DE5AC08091380142
:1007C0008330A9F420914B0130914C018091450177
:1007D00090914601820F931F90934C0180934B019F
:1007E000809138018F5F8093380129DE41C080916C
:1007F00038018430D1F480914501909146019C01EB
:10080000220F331F880F991F880F991F880F991F78
:10081000820F931F90934A01809349018091380180
:100820008F5F809338010BDE23C0809138018530C3
:10083000F9F42091490130914A018091450190914C
:100840004601820F931F90934A0180934901809142
:1008500038018F5F80933801109238011092440163
:100860001092430187E083BFEAE9F0E08081808352
:10087000E6CD0895AFDD8CDC82E04EDC83E091E0D4
:100880000DDD80EC49DC84E191E008DD80E944DCA9
:1008900086E291E003DD2FEF83ED90E3215080406D
:1008A0009040E1F700C0000081E036DC81E487BFC2
:1008B0007894C5DDDDDEC3E6D0E06894662461F897
:1008C0000F2EF3E0AF2EB12CF02D6894CC24C2F89B
:1008D000D12C0F2EF5E0EF2EF12CF02D01E010E0E1
:1008E0006894882481F8912C77247A9498819430A4
:1008F000A9F028F4913041F0923059F01DC09830A1
:1009000091F09031A9F018C0109344010093430175
:1009100013C090924401809243010EC0B0924401F2
:10092000A092430109C0D0924401C092430104C087
:10093000F0924401E092430180914301909144017F
:10094000019741F481E473DD81E46DDD109244018F
:100950001092430180914301909144010397B1F4B7
:1009600065BC7BBA809147019091480190933A0110
:100970008093390180913D0190913E0190933C011B
:1009800080933B0190924401809243018091430106
:1009900090914401049791F415BC1BBA1092420146
:1009A000109241011092400110923F0110923E01BD
:1009B00010923D011092480110924701209143018D
:1009C000309144012530310509F090CF81E074DC8D
:1009D00080930101809101018E3439F080910101F1
:1009E00080930201109200017FCF8091000181115C
:1009F00004C081E0809300013BDE862D5DDC8093A6
:100A00000101809101018E3439F0809101018093C0
:100A100002016092000168CF80910001823021F4D0
:100A200083E08093000124DE83E046DC80930101B3
:100A3000809101018E3441F0809101018093020187
:100A400084E08093000150CF80910001843021F434
:100A500085E0809300010CDE84E02EDC80930101B0
:100A6000809101018E3441F0809101018093020157
:100A700086E08093000138CF80910001863009F034
:100A800033CF87E080930001F3DD2ECF1F920F92CA
:100A90000FB60F9211240BB60F922F933F934F93E3
:100AA0005F936F937F938F939F93AF93BF93EF93D6
:100AB000FF9380914F0190915001019690935001C6
:100AC00080934F0180914F019091500166E070E05A
:100AD00099D0892B69F48091430190914401029748
:100AE00031F08091430190914401039709F471DD45
:100AF00080914F0190915001CD972CF010925001B0
:100B000010924F012BDDFF91EF91BF91AF919F911B
:100B10008F917F916F915F914F913F912F910F90A6
:100B20000BBE0F900FBE0F901F9018951F920F9243
:100B30000FB60F9211242F933F935F936F937F9380
:100B40008F939F93AF93BF9380913B0190913C0112
:100B50002AE030E0B90156D060556BBB80913B0173
:100B600090913C01B9014ED080568BBB80913901E8
:100B700090913A01B90146D060576BBB8091390121
:100B800090913A01B9013ED080588BBBBF91AF9193
:100B90009F918F917F916F915F913F912F910F90D6
:100BA0000FBE0F901F9018951F920F920FB60F92C5
:100BB00011240BB60F922F933F934F935F936F9334
:100BC0007F938F939F93AF93BF93EF93FF93809106
:100BD0009C00809302018091020129DC49DDFF9194
:100BE000EF91BF91AF919F918F917F916F915F91A5
:100BF0004F913F912F910F900BBE0F900FBE0F9012
:100C00001F90189597FB072E16F4009406D077FDD9
:100C100008D014D007FC05D03EF4909581959F4FE5
:100C20000895709561957F4F0895EE0FFF1F002482
:100C3000001C0BBE0790F691E02D0994AA1BBB1B6C
:100C400051E107C0AA1FBB1FA617B70710F0A61BCC
:100C5000B70B881F991F5A95A9F780959095BC01ED
:080C6000CD010895F894FFCFC7
:100C6800014E3073746F7070657220696E646974B8
:100C78003A6B310073746F70706572206B6F7269B4
:100C8800646F3A6B320073746F70706572207265AE
:080C98007365743A6B33000030
:00000001FF
