S011000064696769746F7261312E737265638F
S11300004FC000006AC0000068C0000066C0000065
S113001064C0000062C0000060C000005EC0000058
S11300205CC000005AC0000058C0000056C0000068
S113003054C0000052C0000050C000004EC0000078
S113004005C100004AC000003CC1000046C00000D9
S113005044C0000042C0000040C000003EC0000098
S11300603CC000003AC0000038C0000036C00000A8
S113007034C0000032C0000030C000002EC00000B8
S11300802CC000002AC0000028C00000A101A60165
S1130090AD01B401BB01C201C901D001D701DE0128
S11300A011241FBECFEFD0E1DEBFCDBF11E0A0E031
S11300B0B1E0ECE9F5E000E00BBF02C007900D925F
S11300C0AC3BB107D9F721E0ACEBB1E001C01D9224
S11300D0AA3CB207E1F728D05FC292CFF8941092FD
S11300E064001092650087E689B910929000E5E9F2
S11300F0F0E08081866080838AB188698AB980E271
S113010085BF08955D9BFECF8CB90895CF93DF938F
S1130110EC018881882329F02196F4DF89918111EB
S1130120FCCFDF91CF910895D9DF8CE0EBDF80E045
S113013091E0ECDF8CE091E0E9DF8FE191E0E6DF34
S113014080E391E0E3DF88E091E0E0DF789481E010
S113015087BF13BEFFCF8091C2019091C301019666
S11301609093C3018093C2018091C2019091C30115
S1130170CC9769F48091C4019091C5010196909344
S1130180C5018093C4011092C3011092C2018091F1
S1130190C4019091C501CC9769F48091C6019091F6
S11301A0C70101969093C7018093C6011092C501BF
S11301B01092C4018091C6019091C701489721F41F
S11301C01092C7011092C6010895CF93DF938AE07D
S11301D091E09CDF8091C6019091C701CAE0D0E014
S11301E0BE01AAD180E3860F8DDF8091C601909174
S11301F0C701BE01A1D1805D85DF8AE383DF8091E1
S1130200C4019091C501BE0197D180E3860F7ADFC6
S11302108091C4019091C501BE018ED1805D72DFD1
S11302208AE370DF8091C2019091C301BE0184D141
S113023080E3860F67DF8091C2019091C301BE0104
S11302407BD1805D5FDFDF91CF9108951F920F9284
S11302500FB60F9211240BB60F922F933F934F9327
S11302605F936F937F938F939F93AF93BF93EF931A
S1130270FF938091C8019091C90101969093C9019F
S11302808093C8018091C8019091C901CD9734F041
S11302901092C9011092C8015EDF97DFFF91EF91C0
S11302A0BF91AF919F918F917F916F915F914F918A
S11302B03F912F910F900BBE0F900FBE0F901F9088
S11302C018951F920F920FB60F9211240BB60F922E
S11302D02F933F934F935F936F937F938F939F934A
S11302E0AF93BF93EF93FF93ECB18091BC019091D6
S11302F0BD01892B99F4EF3651F0E33731F0E9363B
S113030009F006C187E083BF03C113BE01C181E0C8
S113031090E09093BD018093BC01FAC08091BC0130
S11303209091BD01019709F0F3C013BE8E2F90E0A8
S1130330FC01F097EA30F10508F046C0EA5BFF4F94
S11303400EC11092BF011092BE013EC081E090E048
S11303509093BF018093BE0137C082E090E09093F8
S1130360BF018093BE0130C083E090E09093BF0151
S11303708093BE0129C084E090E09093BF018093F4
S1130380BE0122C085E090E09093BF018093BE013E
S11303901BC086E090E09093BF018093BE0114C01F
S11303A087E090E09093BF018093BE010DC088E088
S11303B090E09093BF018093BE0106C089E090E075
S11303C09093BF018093BE018091C0019091C101BF
S11303D0892BF1F48091BE019091BF019C01220F01
S11303E0331F880F991F880F991F880F991F820F39
S11303F0931F9093C7018093C6018091C00190918F
S1130400C10101969093C1018093C001DEDE80C0DA
S11304108091C0019091C101019739F52091C601E5
S11304203091C7018091BE019091BF01820F931F4B
S11304309093C7018093C6018091C0019091C1013E
S113044001969093C1018093C001BFDE8091C601E3
S11304509091C70148970CF45BC01092C1011092AF
S1130460C00183E491E052DE53C08091C0019091B9
S1130470C1010297F1F48091BE019091BF019C01EA
S1130480220F331F880F991F880F991F880F991FF8
S1130490820F931F9093C5018093C4018091C00182
S11304A09091C10101969093C1018093C0018DDEAA
S11304B02FC08091C0019091C101039749F520910B
S11304C0C4013091C5018091BE019091BF01820F9A
S11304D0931F9093C5018093C4018091C4019091AE
S11304E0C501CC9754F082E090E09093C1018093D1
S11304F0C0018CE691E00ADE0BC01092C10110929B
S1130500C0011092BD011092BC0187E991E0FEDDAB
S11305105CDEFF91EF91BF91AF919F918F917F919D
S11305206F915F914F913F912F910F900BBE0F9060
S11305300FBE0F901F90189597FB072E16F400948A
S113054006D077FD08D014D007FC05D03EF4909572
S113055081959F4F0895709561957F4F0895EE0F93
S1130560FF1F0024001C0BBE0790F691E02D099498
S1130570AA1BBB1B51E107C0AA1FBB1FA617B707C5
S113058010F0A61BB70B881F991F5A95A9F78095E1
S10F05909095BC01CD010895F894FFCFB4
S113059C55415254204F4B210A0A0D004F726120D1
S11305AC6265616C6C69746173613A6F0A0D004F1A
S11305BC726120696E6469746173613A690A0D0031
S11305CC4F7261206C65616C6C69746173613A7310
S11305DC0A0D000A0D4869626173206265766974BC
S11305EC656C2C20697264206265206120706F6ECA
S11305FC746F73206F726174210A0D000A0D4869BF
S113060C626173206265766974656C2C206972640E
S113061C206265206120706F6E746F732070657238
S113062C636574210A0D000A0D4F726120626561C5
S113063C6C6C697476612C20696E646974617320C6
S10F064C6920676F6D6262616C0A0D002A
S9030000FC
